:10000000FC7F00204D020000390200003D0200008C
:1000100000000000000000000000000000000000E0
:10002000000000000000000000000000410200008D
:10003000000000000000000045020000490200002E
:1000400010B5064C2378002B07D1054B002B02D0AE
:10005000044800E000BF0123237010BD1000002001
:1000600000000000580F000008B5084B002B03D01B
:100070000748084900E000BF07480368002B03D089
:10008000064B002B00D0984708BDC046000000007A
:10009000580F0000140000200C0000200000000099
:1000A00010B5C3699C07FCD403680224A343036012
:1000B000C46901231C42FBD1046823430360036825
:1000C000DC07FCD4C46901231C42FBD1C469DC40B9
:1000D0001C42F7D1084B1A430260C3695A07FCD48B
:1000E000C0239B0243608181C3699C07FCD40368E1
:1000F00002221343036010BD04000040037EDA07B0
:10010000FCD5018570470000027E01235107FBD515
:10011000428B1A4207D1428BDA401A4203D1428BFA
:1001200092081A4202D0034B01221A70008DC0B20D
:100130007047C0462C00002030B5364A1E23516857
:100140000820994302231943516033498A690243C5
:100150008A613248324A9082908A03439382D368FC
:100160009807FCD52F4B012018701878C40704D5C8
:100170002C48407840B20028F7DB0120986058787E
:1001800040B20028FBDB284C26484460587840B237
:100190000028FBDB82242348E4014480587840B2E5
:1001A0000028FBDB908C8024A0439084D068C50697
:1001B000FCD51E4C1A48C462D4681948E506FBD524
:1001C000848C1B4D2C438484D4681548E506FBD5EC
:1001D000848C02252C438484D0680406FCD5104806
:1001E000C0684506F8D5D068C406FCD500229A60E0
:1001F0005A7852B2002AFBDB0E480A4A50605A78FD
:1002000052B2002AFBDB00230B724B728B72CB7253
:1002100030BDC04600400041000400400C06000014
:1002200000080040000C004001050100B805FF7DFA
:10023000040A0000000703000EBEFEE70DBEFEE745
:1002400005BEFEE702BEFEE701BEFEE70E4A0F480E
:1002500038B5824204D10E4A0E4B93420ED10AE0C9
:100260000D4C9442F7D00023D1188842F3D9E558B9
:1002700004330D60F8E700F04DF804E09342FAD241
:10028000002102C3FAE7FEE7000000201000002072
:10029000BC010020100000205C0F0000194A10B5BE
:1002A0001188FA24013189B2174BA400A14201D070
:1002B00011801CE000211180144900240C57604378
:1002C0001C88001980B204B2FF2C01DC188002E007
:1002D000FF20188008700024185F002803DA00202F
:1002E00018800120087080200949800288611288E6
:1002F00000215B5E9A4203D18022054B92025A6133
:1003000010BDC0462E00002030000020000000205C
:100310000044004110B5234B802292029A605A613A
:10032000214A1C1C117801221140204B0022002977
:100330000AD118681E4A904201D1196018E01A606B
:100340001C4A013A002AFCD11A601B4B1A68191C7E
:10035000501C0DD0D8B200280AD180208002A061A4
:1003600082F30888FF229343144A93604B6818472E
:10037000FFF7E2FE62B600F0CBFA80239B02A36196
:100380000320FFF78BFF0E4B1B78002BF8D100F0FA
:1003900033FB0028F4D0012000F014F800F068F8D6
:1003A000FCE7C0460044004138040040FC7F0020C8
:1003B0003581730748E801000020000000ED00E0EF
:1003C00032000020012804D1024B034A1A60034B7B
:1003D00018707047A0000020000D000039000020B8
:1003E00030B51A4B85B01B78002B29D0042901D1D8
:1003F000026804E0022901D1028800E00278490085
:1004000004A843180B3B5C1AA3420BD00F201040EA
:10041000092802D83025284300E037301870120927
:10042000013BF1E701A830230370782343700A22CF
:1004300043189A700D22DA70054B04311B6801E0F5
:10044000034B1B68DB68984705B030BD38000020BF
:10045000A000002072B6EFF30883044A136003681B
:1004600083F30888436818477047C046A4000020FB
:10047000F0B58FB006A9CE4A0B1C31CA31C351CAA0
:1004800051C360CA60C3CB4CCB48A3687A255B03D9
:100490005B0F9B005B58C9490360A26892B253434B
:1004A0000A60C749C74A0B6000231360C64B1D7022
:1004B0000320FFF7F3FEC54BC54D1B68281C1B69C5
:1004C00040219847C34B00221860C34B1D60C34BAB
:1004D000C24DC04F1A60286839688842E8D2BE4BC6
:1004E0001B681A78FF2A00D1F6E1232A00D0CDE15B
:1004F000BB4E3378002B05D0B44BBA481B680221A1
:10050000DB689847B04B1B78532B38D13B682A687F
:1005100093421ED9B04801322A609A1AB24B016840
:100520001B6801310160B14E9A4201D2326000E095
:100530003360A44832680068029000F0BBFB336867
:1005400029685A182A60A44A1668F1181160A84A46
:1005500013702B68013B2B609F4B1A68013A1A609D
:10056000A34BA14A1B7811688B4206D2974A954843
:1005700012680068C91A92699047C04675E1522B0B
:1005800007D1904A914B10681B68974A5B691168C4
:100590006AE14F2B05D18B4B934A1B6812681A7086
:1005A00063E1482B05D1874B8F4A1B6812681A807C
:1005B0005BE1572B05D1834B8B4A1B6812681A608D
:1005C00053E16F2B03D17F4B0121186807E0682BA3
:1005D00008D17C4B84481B6802211B880360FFF70D
:1005E000FFFE42E1772B06D1764B7F481B68042142
:1005F0001B680360F3E7472B13D17B4B1868FFF7A9
:1006000029FF7C4B1B6883F3088862B67A4B1B7802
:10061000002B00D129E16D4B06201B681B68984711
:1006200023E1542B04D101233370684B1B685CE039
:100630004E2B0BD13378002B05D1644B69481B68D6
:100640000221DB689847002333700EE1562B50D10E
:100650005E4D01212B686948DB6898472B680321B0
:10066000DB6867489847674E2B68301CDB680121C0
:1006700098472B680D21DB68634898472B68301C2E
:10068000DB6801219847544F604B544E3B60002378
:1006900033603A1C311C1368581C10601B7803939C
:1006A000002B03D00B6801330B60F4E72B68316833
:1006B000DB68564898472B685248DB680121984709
:1006C0000398306052483860434A1368591C1160DF
:1006D0001A78424B002A03D01A6801321A60F3E7F5
:1006E0002A681968D36898472B68DB683D4802215F
:1006F000BAE03D4A582B15D12F4E314D366813685C
:100700002A68B100934208D25808E061414820802D
:10071000207DC507FCD55B18F4E72C4B3E481B68D1
:10072000DB68A0E0592B33D11268264B3B49002AE5
:1007300002D11B680B6026E0086819686368802591
:10074000AB4392086360002A1DD0354B2380237D84
:10075000DE07FCD50023184D2D680095AD08AB428F
:1007600002D3304D258006E09342FAD09D004659D1
:1007700001334E51EFE7257DEE07FCD59D00491969
:100780004019D21ADFE7114B27481B68DB686AE083
:100790005A2B6AD10B4B17681D680026EF19BD4212
:1007A00044D02878311C00F049F90135061CF6E7E1
:1007B000E00C0000004000415800002050000020E4
:1007C0004C0000209C00002048000020A0000020D9
:1007D0005C00002040000020440000205400002065
:1007E00038000020400D0000A8000020AC000020D0
:1007F0003C000020A4000020390000201C0D000057
:10080000450D00001E0D0000490D0000200D0000E8
:100810002C0D000002A5FFFF350D00003400002064
:1008200044A5FFFF04A5FFFF390D00002E4D2F4802
:100830002B680121DB68984707230F223240111CE7
:1008400036093031092A00DD07311020C0186A4608
:100850008154013BF1D22B6804A8DB68082198473A
:100860002B682348DB6803219847224D7A232B709D
:10087000214B00221A60214B1B7893422CD01A4B3B
:1008800001211B681E48DB68984725E0111C3039A0
:10089000C8B2194B092804D81E68320111431960E7
:1008A0001AE0111C4139052903D81868373A0101AB
:1008B00006E0111C6139052904D81D68573A290141
:1008C0000A4308E02C2A03D10E4A1E68166001E094
:1008D00008490A7000221A600B4B1A6801321A602C
:1008E0000A4B1A680132F3E5A00000203D0D00001C
:1008F0003F0D000048000020A80000203800002024
:10090000430D00009C000020540000204400002003
:1009100010B51C4B01201A78022402431A701A4B9E
:100920000F221978914319701978214319701749CA
:100930000C782043087019780A401A701A78202120
:100940000A431A70124B04211A6A0A431A62114BA5
:10095000114A5A805A7852B2002AFBDBC4220F484F
:100960000F499203FFF79CFB0E4A002313700E4AB7
:1009700013700E4A13700E4A13700E4A13700E4A0B
:10098000137010BD4A440041354400414B440041BE
:1009900000040040000C0040144000000008004229
:1009A0002AF60000B000002037010020B10000202E
:1009B000B4000020380100203501002008B5C1B284
:1009C0000248FFF79BFB012008BDC046000800421B
:1009D000024B187E4007C00F7047C0460008004217
:1009E00008B5FFF7F5FF0028FBD00248FFF78CFBA6
:1009F00008BDC0460008004208B5FFF7E9FF002324
:100A0000984205D0FFF7ECFF031C233B5A425341A9
:100A1000181C08BD70B5041C0D1C4618B44204D047
:100A20002078FFF7CBFF0134F8E7281C70BD10B524
:100A3000041CFFF7D5FF2070012010BD0B0A5840A1
:100A4000034B4000C05A0902484080B27047C0467C
:100A5000580D0000F7B50024051C0F1C261CBC42D5
:100A600020D0FFF7BDFF114BC0B21B780190002BC7
:100A70001AD1311CFFF7E2FF0D4B061C1A88002A21
:100A800004D10C4A11782A1C002907D001996A1C4C
:100A90002970802F02D11988013919800134A4B23C
:100AA000151CDCE7301C00E00120FEBD35010020F4
:100AB000B200002036010020F0B53E4E85B0002285
:100AC00003900C1C32703C4B914201D1012201E099
:100AD0003A490C801A707F231C4201D080349C4319
:100AE000FFF77EFF3378C0B2002B07D000253570AA
:100AF000FFF776FF3378C0B2AB4236D1432803D03C
:100B0000712853D01528EBD1012300930120FFF762
:100B100055FF0098FFF752FF00998025C843C0B2E7
:100B2000FFF74CFF039B00270293244A1388002BF6
:100B30001DD1214901930978002918D10198FFF7A7
:100B40003DFF391C0198FFF779FF013D071C002D7F
:100B5000EBD1000AC0B2FFF731FFF8B2FFF72EFF6A
:100B6000FFF73EFF3378002B0AD035701FE0029963
:100B7000013B09781380029B019101330293DDE769
:100B8000C0B2062807D1009B03990133DBB2803144
:100B90000093803C0391002CB8D10420FFF70EFF96
:100BA000FFF71EFF044B01251C7000E00025281CE8
:100BB00005B0F0BD3501002036010020B200002054
:100BC000F0B5384C87B0002301902370994201D1D1
:100BD000012301E0344A1180344A64261370432013
:100BE000FFF7ECFE324FFFF7F3FE002803D1002F92
:100BF00003D0013FF7E7002F03D1013E002EEED1D5
:100C00004DE00125FFF7ECFE2378002B38D1C0B270
:100C10000290012805D004283DD10620FFF7CEFE22
:100C200039E005AE0221301CFFF714FF0198802146
:100C3000FFF710FF23780390002B18D1FFF7D0FEA9
:100C40000702FFF7CDFEBFB223783F18BFB2012BDA
:100C50000DD0039B9F4207D13378AB4204D1EB43C5
:100C60007278DBB29A4204D01820FFF7A7FE002367
:100C700003E00620FFF7A2FE029B2278002A02D0A2
:100C8000002626700BE0012B05D1019A6B1C8032E7
:100C9000DDB20192B6E7054A002313700126301C2D
:100CA00007B0F0BD35010020B20000203601002061
:100CB00000350C0010B50023934203D0CC5CC45423
:100CC0000133F9E710BD0000F8B5C046F8BC08BC18
:100CD0009E467047F8B5C046F8BC08BC9E467047B3
:100CE000080000001000000020000000400000008C
:100CF000800000000001000000020000000400006D
:100D0000BD090000E1090000D1090000150A00003A
:100D10002F0A0000B90A0000C10B00007600200075
:100D20004D617920323620323031360032303A355A
:100D3000393A323000580A0D00590A0D005A002382
:100D40000A0D003E00322E30005B41726475696E00
:100D50006F3A58595A5D000000002110422063305C
:100D60008440A550C660E770088129914AA16BB103
:100D70008CC1ADD1CEE1EFF13112100273325222AB
:100D8000B5529442F772D662399318837BB35AA353
:100D9000BDD39CC3FFF3DEE362244334200401147B
:100DA000E664C774A44485546AA54BB528850995A3
:100DB000EEE5CFF5ACC58DD553367226111630064B
:100DC000D776F6669556B4465BB77AA719973887F3
:100DD000DFF7FEE79DD7BCC7C448E5588668A7780B
:100DE0004008611802282338CCC9EDD98EE9AFF943
:100DF000488969990AA92BB9F55AD44AB77A966AEB
:100E0000711A500A333A122AFDDBDCCBBFFB9EEB92
:100E1000799B588B3BBB1AABA66C877CE44CC55CBA
:100E2000222C033C600C411CAEED8FFDECCDCDDDE2
:100E30002AAD0BBD688D499D977EB66ED55EF44E8A
:100E4000133E322E511E700E9FFFBEEFDDDFFCCF32
:100E50001BBF3AAF599F788F8891A981CAB1EBA186
:100E60000CD12DC14EF16FE18010A100C230E32002
:100E70000450254046706760B9839893FBA3DAB3AA
:100E80003DC31CD37FE35EF3B1029012F322D23252
:100E90003542145277625672EAB5CBA5A89589857A
:100EA0006EF54FE52CD50DC5E234C324A0148104A2
:100EB0006674476424540544DBA7FAB79987B8974A
:100EC0005FE77EF71DC73CD7D326F2369106B016F2
:100ED00057667676154634564CD96DC90EF92FE90A
:100EE000C899E9898AB9ABA9445865480678276842
:100EF000C018E1088238A3287DCB5CDB3FEB1EFBEA
:100F0000F98BD89BBBAB9ABB754A545A376A167A91
:100F1000F10AD01AB32A923A2EFD0FED6CDD4DCDB9
:100F2000AABD8BADE89DC98D267C076C645C454CE1
:100F3000A23C832CE01CC10C1FEF3EFF5DCF7CDF89
:100F40009BAFBABFD98FF89F176E367E554E745E31
:0C0F5000932EB23ED10EF01E00000000F7
:100F5C0001000000690000004100000000000000DA
:040000030000024DAA
:00000001FF
