:1000000078040020F1000000ED000000ED00000089
:1000100000000000000000000000000000000000E0
:10002000000000000000000000000000ED000000E3
:100030000000000000000000ED000000ED000000E6
:10004000ED000000ED000000ED000000ED000000FC
:10005000ED000000ED000000ED00000000000000D9
:10006000ED000000ED000000ED000000ED000000DC
:10007000ED000000ED000000ED000000ED000000CC
:10008000ED000000ED000000ED00000010B5064C92
:100090002378002B07D1054B002B02D0044800E049
:1000A00000BF0123237010BD0400002000000000E9
:1000B0008C04000008B5084B002B03D00748084902
:1000C00000E000BF07480368002B00D108BD064BC5
:1000D000002BFBD09847F9E7000000008C040000DB
:1000E000080000208C04000000000000FEE7000073
:1000F0001C481D4910B50023884201D11B4B07E065
:100100001B4CCA18A242F9D2C45804331460F7E752
:10011000184A934202D2002204C3F9E7FF210220C9
:10012000154B164A8B4393603022154B5862154B82
:10013000997B9143103A11439973997B143A9143F7
:10014000043A1143997303219A7B8A4302439A73B9
:100150000D4A7D3153680B4353600C4B98470C4B51
:100160009847FEE78C0400000000002004000020F7
:1001700004000020740000200000000000ED00E0FA
:10018000FC70004100480041004000412104000093
:10019000A502000010B510240E4A0F4B9A620F4AB8
:1001A000136A234313620E4A0E4B5A80C0220E4B31
:1001B000920219430D4B19605A60D9690B4A4907DD
:1001C000FBD490810220116801431160DA69920723
:1001D000FCD410BD000C0153004400410004004059
:1001E00010400000000C00400400004000100042DD
:1001F000034B1A7ED207FBD580B218857047C046E4
:1002000000100042034B1A7E5207FBD5188DC0B276
:100210007047C04600100042084B1A7DD207FBD53C
:10022000198B074A80080A401A83064A4000D861A1
:100230001A801A7DD207FCD57047C04600400041A5
:10024000E0FEFFFF02A5FFFFF0B5134B1C7DE407A6
:10025000FBD5124C1C801C7D0F4DE407FBD52E8B6B
:100260000F4C400834402C8300244000A5B2954236
:100270000ED2A5B2571E4E5DBD4201DBB5B203E002
:100280004D196D782D023543261835800234EDE77F
:100290001A7DD207FCD5F0BD0040004144A5FFFF08
:1002A000E0FEFFFFF7B58022494B92009A60802262
:1002B0000620484992049A610870196A11420BD0CD
:1002C000454A464912680A608021C900086880F3DF
:1002D0000888434881601047802292009A61414A11
:1002E000414B116A41480B4080211362404AC902C8
:1002F00053680B43C421536089033E4B98473E4DDE
:10030000A8473E4B1870232805D150303C4CA047DD
:100310000F20A047F3E7652816D18023394CDB0076
:1003200023602068384B984205D8384B984723689B
:100330000133FF33F4E78023354ADB001360354A8D
:10034000732013602E4B1DE070281DD12C4E0330FE
:10035000B04700232B4C0196236027682E4E3F2F79
:1003600005D8A8472368F05501332360F5E7284CEA
:100370002A4B2068311C4022984773202368403361
:100380002360019B9847BAE77628B8D103381C4C04
:10039000A04700231B4D2B602B680F2BAFD81D4FA0
:1003A0000E4E3B6818683060C0B2A0473368180A28
:1003B000C0B2A0473368180CC0B2A0473068000E26
:1003C000A0473B6804333B602B680133E3E7C0463A
:1003D0000044004159440041040400006C00002026
:1003E00000ED00E000080040FFFCFFFF04C5000036
:1003F00000400041950100000502000000000020BF
:10040000F101000024000020FF3F0000190200005D
:1004100020000020280000202C00002049020000BD
:100420000E4B70B500251E1C0D4CE41AA410A542FD
:1004300004D0AB00F35898470135F8E700F016F800
:10044000084B00251E1C084CE41AA410A54204D039
:10045000AB00F35898470135F8E770BD7804000009
:1004600078040000780400007C040000F8B5C04661
:10047000F8BC08BC9E467047B5000000F8B5C04601
:0C048000F8BC08BC9E4670478D000000D0
:04048C00010000006B
:00000001FF
